:020000040000FA
:1000000008790020C9050000D1050000D3050000D3
:10001000D5050000D7050000D9050000000000004C
:10002000000000000000000000000000DB050000F0
:10003000DD05000000000000DF050000E105000014
:10004000071700001D1700003317000049170000B4
:10005000791700008F170000A5170000BB170000DC
:10006000D1170000E7170000FD170000131800006B
:10007000291800003F180000551800006B180000F8
:10008000E3050000E3050000E3050000E3050000D0
:10009000E3050000E3050000E3050000E3050000C0
:1000A000E3050000E3050000E3050000E3050000B0
:1000B000E3050000E3050000E3050000E3050000A0
:1000C000E3050000E3050000E3050000E305000090
:1000D000E3050000E3050000E3050000E305000080
:1000E000E3050000E3050000E3050000E305000070
:1000F000E3050000E3050000E3050000E305000060
:10010000E3050000E3050000E3050000E30500004F
:10011000E3050000E3050000E3050000E30500003F
:10012000E3050000CD320000DD320000E3050000F1
:10013000E3050000E3050000E3050000E30500001F
:10014000E3050000E3050000E3050000E30500000F
:10015000DF060000E3050000E3050000E305000002
:10016000E3050000E3050000E3050000E3050000EF
:10017000DD410000EB410000F9410000E305000013
:10018000E3050000E3050000E3050000E3050000CF
:10019000E3050000E3050000E3050000E3050000BF
:1001A000E3050000E3050000E3050000E3050000AF
:1001B000E3050000E3050000E3050000E30500009F
:10040000FFFFFFFFFFFFFFFFFFFFFFFFFEFFFFFFFD
:10041000DFF80CD00AF06AFF00480047ED05000045
:1004200008790020C0BA70474CF220506149C88159
:100430004DF62810C8814FF4E97008804FF48810F9
:100440005D49486406205D490870002048700846F0
:10045000C07800F03F0040F02000C8700020087114
:10046000487100BF5548807900F010000028F9D08D
:1004700000BF5248807900F00C000028F9D1704785
:100480004E4A127802F0C002002A67D14B4A5279D4
:1004900002F04002002A51D1484A127802F00402C8
:1004A000C2B9454A526802F001020AB9444801E063
:1004B0004FF40040414A1278C2F3C20301229A402D
:1004C000D1B2B0FBF1F03D4A527802F030021AB1DD
:1004D000400901E04FF40040384AD27802F0E002CF
:1004E00002F01F0343BB5211082A25D2DFE802F0B5
:1004F00004080C1014181C2000EB8002D0011CE032
:1005000000EB8002100218E0C0EB0012D00114E0F2
:1005100000EB8002500210E04FF4377250430CE0C1
:100520004FF4B762504308E040F69502504304E0B0
:1005300040F67132504300E000BF30E01F4A1279AC
:1005400002F01F02511C1E4AB2FBF1F01B4A527905
:1005500002F01F0202F11801484320E0174A127806
:1005600002F0C002402A09D1144A527802F0010276
:1005700012B94FF4004012E0114810E00F4A12780F
:1005800002F0C002802A09D10B4A526802F001022F
:100590000AB90B4803E04FF4004000E07047064AF8
:1005A000526C012303EB1272B0FBF2F2054B1A609E
:1005B00000BFF3E7002005400080044000400640F3
:1005C00000093D000000002006488047064800471B
:1005D000FEE7FEE7FEE7FEE7FEE7FEE7FEE7FEE7F3
:1005E000FEE7FEE729040000110400000EB500F04C
:1005F00026FE08F0DBFF0AF07CF900F01EFE2AE080
:100600001A480078E8B11A4800680AF021FD04B2DF
:100610000021184890F900201748008800B2CDE961
:10062000012100901548B0F9003022461448B0F975
:1006300000101448B0F9000009F0F4F900200B494B
:1006400008701148007820B106F059FA00200E49D0
:10065000087006F089FFD3E704460D462246294676
:100660000AA004F0A7F900BFFEE70000090000207F
:100670001C02002000010020040100200A010020CB
:100680001202002010020020070000206173736531
:1006900072745F6661696C65643A6C696E653A256F
:1006A000642025730D0A00001CB500208DF80000A1
:1006B00001200190684602F0EDF901220021084670
:1006C00002F0A1FA442000F01F02012191404209EA
:1006D000920002F1E022C2F8001100BF1CBD10B56B
:1006E0000021084602F0E9FA00F0A9FDF34800787D
:1006F000012854D1F248007870B9F2480068012806
:1007000006D1EF4908704FF49670EF4908802EE04B
:100710000020EB4908702AE0E948007801281BD145
:10072000EA480088401CE949088008460088E849F2
:100730000988884205DB0020E44908800120E5495A
:100740000880E048006890B9E248008801280ED18E
:100750000220DB4908700AE0D9480078022806D157
:10076000D8480068012802D10320D5490870D44830
:100770000078032807D10021012009F060FA002148
:10078000022009F05CFAD4480078012852D10021F7
:1007900009F055FA0021022009F051FA4AE0C74851
:1007A000007802281FD1C648007860B9C5480068A3
:1007B000012805D1C2490870C820C349088002E059
:1007C0000020BF490870BE480078012832D1C248D5
:1007D000007801282ED1002109F031FA00210220F1
:1007E00009F02DFA26E0B5480078032822D1B44854
:1007F000007880B9B9480088401CB849088008468C
:10080000008840F6B831884205D10120AC49087013
:10081000C820AD490880AA48007801280AD1AE480E
:100820000078012806D1002109F009FA00210220F0
:1008300009F005FAAA480078401CA9490870A9489F
:100840000078401CA7490870A7480078401CA649BA
:100850000870A6480078401CA4490870A448007895
:10086000401CA3490870A348007820B9A24800881A
:10087000401CA1490880A048008841F2707188425C
:1008800005DB00209C49088001209A4908709748A0
:1008900002789A48B0F900109948B0F9000009F0C0
:1008A0009AFB9849088086480078022806D08A4832
:1008B000007818B98148007801280AD17F4800786B
:1008C000012811D17E48007803280DD08248007895
:1008D00050B98D48B0F900208A48B0F900108B4813
:1008E000B0F9000009F001FB7D480078052803D12C
:1008F00000207B49087045E079480078012804D140
:1009000008F041FA09F0A0FA3CE0754800780228A6
:1009100012D109F078FB7E480078401C7C490870B1
:100920000846007814282DD109F0DFFB0020784913
:1009300008706E49087025E069480078032820D1C6
:1009400074480078401C73490870084600780228F3
:1009500018D104F0BFFB04F0C3FB6F4807F061FB44
:100960006E4807F0F3FB09F069FB08F014F908F092
:1009700020F909F0D7FC0020664908705C4908702E
:1009800000E000BF57480078322805D101206449B3
:10099000087000205349087053480078022805D198
:1009A00001206049087000204F4908705E480078B7
:1009B00050B35E48008838BB5D480088401C80B258
:1009C0005B490880C8281FDBC82008803D482030CC
:1009D0000068012818D13B481C300068012813D159
:1009E0005448007830B901205249087064205249B7
:1009F000088006E000204F490870504908704E49B1
:100A0000088000204A4908804D480078C8B339481A
:100A10000078B0B34B480088401C80B24949088038
:100A2000B0F5FA7F19DD4FF4FA700880464802F0FD
:100A30002DFC4649088008460088454909888842B7
:100A40000BDA3A48008828B9012038490880C820C4
:100A50004049088000203B4908803448008880B124
:100A60003D480088401C80B23B4908803B490988CA
:100A7000884206DD0020384908802C490880354925
:100A800008803748007870B93648007858B9274848
:100A9000008840B93448007828B93448007810B943
:100AA0002448007818B101203149086002E0002094
:100AB0002F49086000F0C1FB10BD00007400002049
:100AC0000C0000200C0AFE43620100203C000020C4
:100AD000400000203E000020600100200A000020AD
:100AE0000500002006000020080000200E00002065
:100AF0001C0000203200002030000020FA010020FD
:100B0000FE010020120000203C020020E401002031
:100B10001B0000201A000020FA330020FA340020C5
:100B20000700002009000020EA0000202A00002021
:100B300020000020AC000020AE000020F9000020C2
:100B4000EB00002028000020104278002600002042
:100B50002E00002038000020220000203600002057
:100B6000C30000208E000020C000002006010020ED
:100B70005408FE43FE48007800F0040010B1012044
:100B8000FC494870FA48007800F0020010B10220D9
:100B9000F8494870F648007800F0010010B10320D1
:100BA000F4494870F248407800F0800010B1042009
:100BB000F0494870EE48407800F0400010B1052040
:100BC000EC494870EA48407800F0200010B1062057
:100BD000E8494870E648407800F0040010B107206A
:100BE000E4494870E248407800F0020010B1082063
:100BF000E0494870DE48407800F0010010B109205B
:100C0000DC494870DC48406AC0F30210082825D24D
:100C1000DFE800F004080C1014181C200A20D54945
:100C200008701FE01420D34908701BE01E20D14932
:100C3000087017E02820CF49087013E03C20CD4908
:100C400008700FE04620CB4908700BE03220C949FC
:100C5000087007E03520C749087003E00020C54947
:100C6000087000BF00BFC448406A00F00F00801E3B
:100C70000D2831D2DFE800F007300B0F13171B1FD0
:100C8000233027302B002020BA49888028E03020EC
:100C9000B849888024E04020B649888020E0502070
:100CA000B44988801CE05120B249888018E0642053
:100CB000B049888014E06820AE49888010E0902018
:100CC000AC4988800CE0C420AA49888008E04FF431
:100CD0008070A849888003E00020A649888000BF72
:100CE00000BFA548406AC0F3033020B1012806D0F8
:100CF00002280CD107E00A209E4988700BE00B20E7
:100D00009C49887007E00C209A49887003E0002015
:100D10009849887000BF00BF9748C06CC0F303605B
:100D2000072806D0092809D00B280CD00F2814D189
:100D30000EE04FF400308F49886012E04FF48020BD
:100D40008C4988600DE04FF400208A49886008E0F3
:100D50004FF400208749886003E0002085498860BF
:100D600000BF00BF8448006D00F4000018B10020EF
:100D70008049C86022E08048C06C000F30B107286D
:100D800008D009280BD00F2813D10DE00020794995
:100D9000C86012E04FF400307649C8600DE04FF4AF
:100DA00080207449C86008E04FF480207149C86011
:100DB00003E000206F49C86000BF00BF6F480068B3
:100DC000C0F30330052806D0072809D008280CD026
:100DD000092814D10EE04FF400406649086112E082
:100DE0004FF48030634908610DE04FF4C030614931
:100DF000086108E04FF400305E49086103E000201C
:100E00005C49086100BF00BF5D48006859494861FE
:100E10005948406CC0F30360401C59490968B1FB54
:100E2000F0F0544988615448406CC0F30350401CB2
:100E300053490968B1FBF0F04E49C8614E48406C17
:100E4000C0F30340401C4E490968B1FBF0F049492A
:100E50000862704770B504460D461CB1052C01D0E0
:100E6000062C00D103E0802146A0FFF7F5FB122DF0
:100E700009D0132D07D0112D05D0102D03D0092D29
:100E800001D0082D00D103E081213EA0FFF7E4FB53
:100E9000002C5BD1601E3849486406203F49087029
:100EA000002048700846C07820F0E000C870082D87
:100EB0001DD0102D0DD0112D27D10846C07840F03F
:100EC000E000C87036482C49486436482C49086010
:100ED00029E03248C07840F0C0003049C8704FF077
:100EE0008970254948643048254908601BE02B4833
:100EF000C07840F0A0002949C8704FF480301E49E6
:100F000048642A481E4908600DE02448C07840F033
:100F1000A0002249C8704FF4803017494864234824
:100F20001749086000BF00BF00201C4908714871C4
:100F300000BF1A48807900F010000028F9D000BFE7
:100F40001648807900F00C000028F9D1062C01D059
:100F5000052C73D14FF0FF30074948640020144935
:100F600008700548406800F0FE000349486021E031
:100F700000E0074040020020008004400070044070
:100F8000000000202E2E5C5352435C46574C4942D1
:100F90005C5359535C7379732E6300000040064024
:100FA0000000130100D8B80500A24A04006CDC025E
:100FB000005006402420AC4948709A20087008462A
:100FC000C07800F01F00C87003200871002048712D
:100FD00000BFA548807900F002000028F9D000BFCA
:100FE000A148807900F010000028F9D100BF9E4888
:100FF000807900F00C000828F9D1062C03D10320D9
:101000009949087104E0052C02D11820964908710D
:10101000A5F108000C2855D2DFE800F00611545461
:10102000545454541C27313B40208F49487180024E
:101030008E4948648E488F4908604DE06CE0482036
:10104000894948714FF08970884948648A488949BC
:10105000086041E04C20844948714FF08970834911
:10106000486486488349086036E058207E494871C4
:1010700083487E49486483487E4908602CE05A20B2
:10108000794948717E48794948647F4879490860C0
:1010900022E0062C08D10120734908715A204871BA
:1010A0007A487249486409E0052C07D10C206E4942
:1010B00008715C20487175486C49486474486D49F2
:1010C000086009E040206849487180026749486427
:1010D00067486849086000BF00BF00BF6248807968
:1010E00000F020000028F9D000BF5F48807900F0B0
:1010F00040000028F9D01A205B49087000BF5A4808
:10110000807900F00C000C28F9D100BF5648807996
:1011100000F040000028F9D0FFF72CFD70BD2DE94C
:10112000F05F07460C4615461E46072C07D0062CD6
:1011300005D0052C03D0042C01D0032C00D105E0F0
:1011400040F20D11AFF2C410FFF786FA102D00D255
:1011500005E04FF48771AFF2D410FFF77DFA102E3F
:1011600000D205E040F20F11AFF2E810FFF774FA79
:1011700000BF04F00701474A10684FF6FF02104015
:10118000454A024342EA0120424A106000BF384605
:101190002346AC46B04603F00702C2F1070BBBF191
:1011A000040F02D94FF0040B01E0C2F1070BDA463D
:1011B00002F1040BBBF1070F02D24FF0000B01E06C
:1011C000A2F1030BD9464FF0010B0BFA0AFBABF16E
:1011D000010B0BEA0C0B0BFA09FB4FF0010E0EFA98
:1011E00009FEAEF1010E0EEA080E4BEA0E0100BF39
:1011F00000280ADA0A074FEA126C264A0C3200F07D
:101200000F031B1F02F803C003E00A07130E234A53
:10121000135400BFBDE8F09F00BFBFF34F8F1D48C0
:10122000006800F4E0601C490843001D194908608B
:10123000BFF34F8F00BF00BFFEE762B6704772B6C4
:10124000704710B5044604F0030000B905E040F211
:101250003D11AFF2D020FFF7FFF90E48001F0460E8
:1012600010BDF020704700000040064000800440A0
:10127000006CDC02000000200090D00300A24A04B1
:101280000000130100D8B80500E1F50500001701C2
:1012900000C2EB0B0CED00E00000FA0500E400E0FA
:1012A00010B54FF0E020006940F004004FF0E0215D
:1012B0000861FFF75FFC2D4840692D49B0FBF1F054
:1012C0002C490870084600784FF47A7110FB01F041
:1012D0002949086010BD0146264A12784A434FF05A
:1012E000E0235A6100229A611A46126942F0010213
:1012F0001A6100BF4FF0E022106900F001021AB13C
:1013000000F48032002AF5D04FF0E022126922F07A
:1013100001024FF0E0231A61704710B50146002228
:1013200020E0154B1B684FF0E02463610023A361AC
:1013300023461B6943F00103236100BF4FF0E02304
:10134000186900F001031BB100F48033002BF5D0C5
:101350004FF0E0231B6923F001034FF0E0242361E9
:10136000531C9AB28A42DCD310BD00004002002018
:1013700040420F004400002048000020F849C96B9B
:1013800041F00201F64AD1631146096C41F00201B5
:101390001164F449C968037801229A409143F14AE3
:1013A000D160417801F03F010278EF4BD15481794F
:1013B00011B1012912D108E00178EB4A895C21F0D2
:1013C00040010278E84BD15409E00178E64A895C93
:1013D00041F040010278E44BD15400E000BF00BF6F
:1013E0000022E249037801EB4311CA80DF49037808
:1013F00001EB43118A834188DC4A037802EB4312F4
:1014000091608188C1F30E02D849037801EB431142
:10141000CA828188C1F30E02D449037801EB4311DB
:10142000CA83D249037801EB4311C2680A6001897B
:101430008AB2CE49037801EB43118A80CB49027806
:1014400001EB4211C988027C4FF4E06303EA0222F7
:101450001143C64A037802EB4312D180C349027894
:1014600001EB4211C988027E4FF4784303EAC2229D
:101470001143BE4A037802EB4312D180BB49037883
:1014800001EB43114269CA60B849037801EB43118B
:10149000026A0A61818B8AB2B449037801EB431175
:1014A0008A82B249027801EB4211CA8890F824106E
:1014B00001F007010A43AD49037801EB4311CA80EB
:1014C000AA49027801EB4211C98890F82C20F82330
:1014D00003EAC2021143A54A037802EB4312D1800A
:1014E000A249037801EB4311826A8A619F4902781D
:1014F00001EB4211898B41F008029C49037801EB12
:1015000043118A830178984A895C41F0800102780E
:10151000954BD15470470146944800EB4110C08A66
:10152000C0F30E007047914A02EB4012D28AD30BEF
:10153000DB038E4A02EB4012D3828C4A02EB40124C
:10154000D28AC1F30E031A43884B03EB4013DA82AD
:10155000704700F00F01834AD176704700F00F0109
:10156000804A9176704751B1804A02EB4012928BCB
:1015700042F008037D4A02EB4012938309E07B4A64
:1015800002EB4012928B22F00803784A02EB4012E1
:101590009383704710B50AB3744B03EB40139B8BD6
:1015A00043F02004714B03EB40139C836F4B03EB20
:1015B00040139B8B23F470646C4B03EB40139C83B0
:1015C0006A4B03EB40139B8B4FF4706404EA0124D5
:1015D0002343664C04EB4014A38309E0634B03EB05
:1015E00040139B8B23F02004604B03EB40139C8340
:1015F00010BD70B504460D4635B1012D0FD0022D3A
:1016000018D0032D3ED124E0584800EB4410808BC5
:1016100020F00401554800EB4410818333E0534827
:1016200000EB4410808B20F00201504800EB441086
:10163000818328E04E49085700F022F94B4800EB1F
:101640004410808B40F00401484800EB4410818333
:1016500019E04749085700F013F9444800EB4410DB
:10166000808B20F00401414800EB441081833F4807
:1016700000EB4410808B40F002013C4800EB44102A
:10168000818300E000BF00BF70BD11B1394A42F84C
:101690002010704701463348C06801228A4010403C
:1016A00070B1324800EB4110808B00F0800028B10F
:1016B00001F00F002B4A1077002070470120FCE753
:1016C00001F00F00274A10770020F6E7274A02EBC7
:1016D0004012116170470146244800EB4110006937
:1016E0007047224A02EB40121160704701461F48C2
:1016F00000EB4110006870471A48006840F4003061
:1017000018490860704710B500201649C877194875
:10171000006810B117490868804710BD10B5012056
:101720001049C8771348406810B11249486880478B
:1017300010BD10B502200B49C8770E48806810B163
:101740000C498868804710BD10B503200549C8774B
:101750000848C06810B10749C868804710BD00003C
:1017600000800440008000400010024000900040D3
:101770003CB800006402002010B504204649C87738
:101780004648006910B145490869804710BD10B549
:1017900005204149C8774148406910B13F4948692F
:1017A000804710BD10B506203B49C8773B4880698B
:1017B00010B13A498869804710BD10B507203649F5
:1017C000C8773648C06910B13449C869804710BD30
:1017D00010B508203049C8773048006A10B12F4949
:1017E000086A804710BD10B509202B49C8772B48DF
:1017F000406A10B12949486A804710BD10B50A20D7
:101800002549C8772548806A10B12449886A8047ED
:1018100010BD10B50B202049C8772048C06A10B110
:101820001E49C86A804710BD10B50C201A49C877F8
:101830001A48006B10B11949086B804710BD10B5EC
:101840000D201549C8771548406B10B11349486BF6
:10185000804710BD10B50E200F49C8770F48806B28
:1018600010B10E49886B804710BD10B50F200A4992
:10187000C8770A48C06B10B10849C86B804710BDD3
:1018800000F01F02012191404209920002F1E02282
:10189000C2F8001170470000008000406402002080
:1018A00030B5024600200021111D0B7803F00F0314
:1018B00023B1012B04D0022B06D103E0FE4804E043
:1018C000FE4802E0FE4800E000BF00BF137B33B1DA
:1018D000012B64D0022B7DD0032B7CD158E1436DCA
:1018E00043F004034365436D23F001034365D0F8DF
:1018F000803023F00103C0F88030036823F0200318
:10190000036000240B78C3F3031500F10C0343F8C4
:1019100035400B78C3F3031400F10C0353F8343053
:1019200043F028040B78C3F3031500F10C0343F8CC
:1019300035400B78C3F30313082B2DD2DFE803F0F7
:1019400004050E0F1819222300BF436E23F0040371
:101950004366436E23F0010343661EE000BF436EFF
:1019600023F480634366436E23F48073436614E07C
:1019700000BF436E23F480234366436E23F4803319
:1019800043660AE000BF436E23F080634366436E04
:1019900023F08073436600E000BF00BF98E1436D11
:1019A00043F004034365436D23F001034365D0F81E
:1019B000803023F00103C0F88030036843F0200337
:1019C000036000240B78C3F3031500F10C0343F804
:1019D000354001E046E07AE10B78C3F3031400F1EF
:1019E0000C0353F8343043F028040B78C3F3031589
:1019F00000F10C0343F835400B78C3F30313082BB5
:101A00002DD2DFE803F004050E0F1819222300BFC2
:101A1000436E23F004034366436E23F001034366E1
:101A20001EE000BF436E23F480634366436E23F4DD
:101A30008073436614E000BF436E23F48023436643
:101A4000436E23F4803343660AE000BF436E23F005
:101A500080634366436E23F08073436600E000BFFB
:101A600000BF35E1436D43F004034365436D43F02C
:101A700001034365D0F8803023F00103C0F88030C3
:101A8000036823F02003036003238365836D43F021
:101A90008003836500240B78C3F3031500F10C0366
:101AA00043F835400B78C3F3031400F10C0353F8EB
:101AB000343043F028040B78C3F3031500F10C0312
:101AC00043F835400B78C3F30313082B5DD2DFE8EE
:101AD00003F004051A1B3031464700BF436E23F064
:101AE00004034366436E43F001034366436E23F0F1
:101AF00002034366436E43F020034366436E23F0C4
:101B00001003436642E000BF436E23F480634366E4
:101B1000436E43F480734366436E23F4007343665D
:101B2000436E43F400534366436E23F4805343668D
:101B30002CE000BF436E23F480234366436E43F4DE
:101B400080334366436E23F400334366436E43F4AD
:101B500000134366436E23F48013436616E000BF10
:101B6000436E23F080634366436E43F080734366A5
:101B7000436E23F000734366436E43F000534366A5
:101B8000436E23F08053436600E000BF00BF00BFF8
:101B9000436D43F004034365436D43F00103436524
:101BA000D0F8803023F00103C0F88030036823F0C0
:101BB000200303608523836603238365836D43F0DD
:101BC0008003836500240B78C3F3031500F10C0335
:101BD00043F835400B78C3F3031400F10C0353F8BA
:101BE000343043F028040B78C3F3031500F10C03E1
:101BF00043F835400B78C3F30313082B64D2DFE8B6
:101C000003F004051A1B3031464700BF436E23F032
:101C100004034366436E43F001034366436E43F09F
:101C200002034366436E43F020034366436E43F072
:101C30001003436649E000BF436E23F480634366AC
:101C4000436E43F480734366436E43F4007343660C
:101C5000436E43F400534366436E43F4805343663C
:101C600033E000BF436E23F480234366436E43F4A6
:101C700080334366436E43F400334366436E43F45C
:101C800000134366436E43F4801343661DE000BFB8
:101C9000436E23F080634366436E43F08073436674
:101CA000436E43F000734366436E43F00053436654
:101CB000436E43F0805305E00080034000900340F2
:101CC00000800B40436600E000BF00BF00BF00BFC4
:101CD00000BF30BD2DE9F3410C46002700256E46BC
:101CE000FC49009888425DD0FB490098884259D051
:101CF000FA490098884255D0F9490098884251D055
:101D0000F849009888424DD0F7490098884249D058
:101D1000F6490098884245D0F5490098884241D05C
:101D2000F449009888423DD0F3490098884239D060
:101D3000F2490098884235D0F1490098884231D064
:101D4000F049009888422DD0E349903900988842A4
:101D500028D0ED490098884224D0EC490098884268
:101D600020D0EB49009888421CD0EA49009888426C
:101D700018D0E9490098884214D0E8490098884270
:101D800010D0E749009888420CD0E6490098884274
:101D900008D0E5490098884204D0E249C13900984A
:101DA000884200D103E0E521E0A0FEF755FC42F2B5
:101DB0001070844200D803E0E621DCA0FEF74CFC62
:101DC000307800F00F0020B1012804D0022806D19D
:101DD00003E0DC4D04E0DC4D02E0DC4D00E000BF40
:101DE00000BFA868604342F21071B0FBF1F7307891
:101DF000C0F3031105F10C0000EBC1004760BDE822
:101E0000FC812DE9F04704460025A846261DB1496E
:101E1000606888425DD0B0496068884259D0AF4957
:101E20006068884255D0AE496068884251D0AD495B
:101E3000606888424DD0AC496068884249D0AB495F
:101E40006068884245D0AA496068884241D0A94963
:101E5000606888423DD0A8496068884239D0A74967
:101E60006068884235D0A6496068884231D0A5496B
:101E7000606888422DD0984990396068884228D09F
:101E8000A1496068884224D0A0496068884220D077
:101E90009F49606888421CD09E496068884218D07B
:101EA0009D496068884214D09C496068884210D07F
:101EB0009B49606888420CD09A496068884208D083
:101EC00099496068884204D09649C139606888425F
:101ED00000D104E040F2071194A0FEF7BDFB207B87
:101EE00040B1207B012805D0207B022802D0207B36
:101EF000032800D104E04FF484718CA0FEF7ACFB02
:101F000042F21071A068884200D804E040F2091142
:101F100086A0FEF7A1FB307800F00F0020B1012869
:101F20000AD0022818D10FE08948C06B40F08070B9
:101F30008749C863834D10E08548C06B40F000704E
:101F40008349C863804D08E08148006B40F0807091
:101F50007F4908637D4D00E000BF00BF3068C0F3DB
:101F60008330052831D2DFE800F0030C151E27006E
:101F7000DFF8E0817648806B40F400707449886334
:101F800023E0DFF8D4817248806B40F480607049B0
:101F900088631AE0DFF8C4816D48806B40F400600C
:101FA0006B49886311E0DFF8B8816948806B40F4C1
:101FB00080506749886308E0DFF8A8816448806B37
:101FC00040F400506249886300BF00BF3088C0F30E
:101FD000052058F8200020F4E0603188C1F3052185
:101FE00048F821003088C0F3052058F820003168F7
:101FF000C1F383414FF4E06202EA012108433188D2
:10200000C1F3052148F82100574880692168B0FBD9
:10201000F1F04FF6FF71B0FBF1F0C7B2042F00DB17
:1020200004270121B940206848434F498969B1FB21
:10203000F0F9286820F018002860286820F00700D0
:102040002860286807F0070141F00801084328606C
:10205000C5F808900020E8646860814601E009F155
:10206000010942488145FAD32046FFF719FCD4E91B
:102070000101FFF72FFEBDE8F08770B504460D465D
:1020800016463048844205D02F48844202D02F485B
:10209000844200D104E040F2E91124A0FEF7DCFA0A
:1020A0000EB1012E00D104E04FF4F5711FA0FEF730
:1020B000D3FA0B2D75D2DFE805F0606162636465C9
:1020C000666780800600012E52D1206840F04000F3
:1020D000206051E00081100000030C00108210000D
:1020E00010040C002083100020050C003084100028
:1020F00040C4100050C5100050000C0060C6100015
:1021000060010C0070C71000010C0C0001400C00B5
:10211000110D0C0011410C0002520C0012530C0066
:1021200030060C0001080C0011090C002E2E5C5327
:1021300052435C46574C49425C46544D5C66746D54
:102140002E630000008003400090034000800B409D
:10215000008004400090044000A0044000B004400F
:1021600000C0044000D0044040020020801A060055
:10217000206820F04000206020E000BF00BF00BFCA
:1021800000BF00BF00BF00BF012E0BD104F10C0047
:1021900050F8350040F0400104F10C0040F83510D3
:1021A0000AE00AE004F10C0050F8350020F040018C
:1021B00004F10C0040F8351000E000BF00BF70BD16
:1021C00070B505460C464C48854205D04B488542C3
:1021D00002D04B48854200D105E040F21721AFF212
:1021E000B400FEF739FA0A2C0FD074B1012C0CD0D0
:1021F000022C0AD0032C08D0042C06D0052C04D0C5
:10220000062C02D0072C00D004B905E04FF406716B
:10221000AFF2E800FEF720FA0B2C21D2DFE804F041
:102220000E0F10111213141520200600286800F05C
:10223000800008B1012600E0002611E000BF00BFC9
:1022400000BF00BF00BF00BF00BF05F10C0050F889
:10225000340000F0800008B1012600E0002600BF35
:1022600000BF304670BD70B505460C4600262248BA
:10227000854205D02148854202D02148854200D1BF
:1022800005E04FF41171AFF25C10FEF7E5F90A2C8E
:102290000FD074B1012C0CD0022C0AD0032C08D022
:1022A000042C06D0052C04D0062C02D0072C00D01C
:1022B00004B905E040F24521AFF29010FEF7CCF9E9
:1022C00000BF0B2C15D2DFE804F008090A0B0C0D37
:1022D0000E0F141406002E680BE000BF00BF00BFF5
:1022E00000BF00BF00BF00BF05F10C0050F8346014
:1022F00000BF00BF70BD000000800340009003409D
:1023000000800B4070B5044600260025FE49A068F9
:10231000884212D0FC494031A06888420DD0FA4969
:102320008031A068884208D0F749C031A06888424F
:1023300003D0F649A068884200D103E03921F4A017
:10234000FEF78AF92088202800DA03E03A21F0A07D
:10235000FEF782F9A07810B1A078012800D103E03F
:102360003B21EBA0FEF778F9E078B8B1E0780128DE
:1023700014D0E078022811D0E07803280ED0E0785D
:1023800008280BD0E078092808D0E0780A2805D082
:10239000E0780B2802D0E0780C2800D103E03C2143
:1023A000DBA0FEF759F9207904280BD02079052805
:1023B00008D02079062805D02079072802D0207976
:1023C000082800D103E03D21D1A0FEF745F9A66819
:1023D000CD498031701A8E421BD005DCD348304481
:1023E00038B140282DD10CE040281AD0802828D1BF
:1023F0001FE0CF4DCF48806B40F40070CD4988631B
:1024000020E0CD4DCB48806B40F48060C9498863A3
:1024100018E0CA4DC748806B40F40060C549886326
:1024200010E0C74DC348806B40F48050C1498863B9
:1024300008E0C44DBF48806B40F40050BD4988633C
:1024400000E000BF00BF208855F8200020F4E060C5
:10245000218845F82100208855F8200040F480703C
:10246000218845F821002079072802D02079082802
:1024700035D170692278012191400843706120882C
:1024800055F8200020F00200218845F82100A078AE
:10249000012806D13068227801219140084330603C
:1024A00005E030682278012191408843306020792E
:1024B000072808D1208855F8200040F02000218806
:1024C00045F821004DE0207908284AD1208855F8A8
:1024D000200020F02000218845F8210041E02079EB
:1024E000042805D02079052802D02079062838D183
:1024F0007069227801219140884370612079042815
:1025000008D1208855F8200020F00200218845F8E5
:10251000210026E02079052810D1208855F82000D8
:1025200040F00200218845F82100208855F820005D
:1025300020F00100218845F8210012E020790628CA
:102540000FD1208855F8200040F00200218845F87E
:102550002100208855F8200040F00100218845F82E
:102560002100208855F8200020F47020218845F8AB
:102570002100208855F82000E1784FF4702202EA0B
:1025800001410843218845F8210070BD10B502467D
:1025900000235D4C8034101BA2420FD005DC634841
:1025A000104438B140280FD106E0402808D08028D8
:1025B0000AD107E05E4B08E05F4B06E05F4B04E0AA
:1025C0005F4B02E05F4B00E000BF00BFD3F8A0000C
:1025D00001248C40204008B1012010BD0020FCE700
:1025E00010B50022484C8034031BA0421BD005DCF0
:1025F0004E4B03443BB1402B2DD10CE0402B1AD065
:10260000802B28D11FE04A4A4A4B9B6B43F400734E
:10261000484CA36320E0484A464B9B6B43F48063DD
:10262000444CA36318E0454A424B9B6B43F4006360
:10263000404CA36310E0424A3E4B9B6B43F48053F3
:102640003C4CA36308E03F4A3A4B9B6B43F4005376
:10265000384CA36300E000BF00BFD2F8A0300124D3
:102660008C402343C2F8A03010BD0021C17004216A
:102670000171704770B504460D46164622488442E3
:102680000ED02148403084420AD01F488030844216
:1026900006D01E484038844202D01C48844200D1F3
:1026A00003E0DA211AA0FDF7D7FF202D00DA03E0BE
:1026B000DB2117A0FDF7D0FF0EB1012E00D103E002
:1026C000DC2113A0FDF7C8FF2EB160680121A940ED
:1026D0000843606004E0A0680121A9400843A060AD
:1026E00070BD70B504460D46074884422FD0064899
:1026F000403084422BD004488030844227D00348A5
:102700004038844223D01FE000F00F4000F10F401A
:102710002E2E5C5352435C46574C49425C4750490D
:102720004F5C6770696F2E63000000000010F0BFFF
:10273000009004400080044000A0044000B0044029
:1027400000C0044000D00440CD48844200D104E0E1
:10275000F721AFF24400FDF77FFF202D00DA04E0FF
:10276000F821AFF25400FDF777FF60680121A9401E
:102770000843606070BD70B504460D46C148844290
:102780000ED0C048403084420AD0BD4880388442D0
:1027900006D0BB484038844202D0B948844200D1B8
:1027A00005E040F20B11AFF29800FDF755FF202D28
:1027B00000DA05E04FF48671AFF2AC00FDF74CFF94
:1027C000A0680121A9400843A06070BD70B504460F
:1027D0000D46AC4884420ED0AA48403084420AD00C
:1027E000A7488038844206D0A5484038844202D0A9
:1027F000A348844200D105E04FF49071AFF2F0009D
:10280000FDF72AFF202D00DA05E040F22111AFF29A
:102810000010FDF721FFE0680121A9400843E060B6
:1028200070BD70B504460D46964884420ED095485A
:10283000403084420AD092488038844206D0904882
:102840004038844202D08E48844200D105E040F2F4
:102850003511AFF24410FDF7FFFE256070BD70B575
:1028600004460D460026874884420ED085484030F5
:1028700084420AD082488038844206D0804840385A
:10288000844202D07E48844200D105E040F24911E2
:10289000AFF28410FDF7E0FE202D00DA05E04FF4E2
:1028A000A571AFF29410FDF7D7FE2068E84000F064
:1028B000010008B1012600E00026304670BD10B5C9
:1028C0000446704884420ED06E48403084420AD09C
:1028D0006B488038844206D069484038844202D030
:1028E0006748844200D105E04FF4B271AFF2E010C6
:1028F000FDF7B2FE206880B210BD70B504460D46EB
:102900000026604884420ED05E48403084420AD09F
:102910005B488038844206D059484038844202D00F
:102920005748844200D105E040F27911AFF22020EF
:10293000FDF792FE202D00DA05E04FF4BD71AFF2F5
:102940003020FDF789FE2069E84000F0010008B161
:10295000012600E00026304670BD10B50446494807
:1029600084420ED04748403084420AD044488038E0
:10297000844206D042484038844202D040488442D3
:1029800000D105E04FF4CA71AFF27C20FDF764FE80
:10299000206910BD10B53C4B9B6B3C4C54F820405B
:1029A0002343394CA3633A4B53F8203053F821307A
:1029B00023F4E063364C54F8204044F82130344B83
:1029C00053F8203053F821304FF4E06404EA022435
:1029D00023432F4C54F8204044F8213010BD10B54B
:1029E000294B9B6B294C54F820402343264CA3636E
:1029F00022B1012A0FD0022A3FD125E0244B53F8FF
:102A0000203053F8213023F00203214C54F82040A9
:102A100044F8213032E01E4B53F8203053F8213077
:102A200043F002031A4C54F8204044F82130184B6C
:102A300053F8203053F8213043F00103144C54F87C
:102A4000204044F8213019E0114B53F8203053F85E
:102A5000213043F002030E4C54F8204044F821305A
:102A60000B4B53F8203053F8213023F00103084C6E
:102A700054F8204044F8213000E000BF00BF10BDF2
:102A800000F10F4000F00F400080044060B80000EB
:102A90004CB8000070B504460025207840B120787D
:102AA000012805D02078022802D02078032800D100
:102AB00003E0152191A0FDF7CFFDFEF75BF89548E7
:102AC00080694FF47A71B0FBF1F0616800FB01F5A9
:102AD0009148C06B40F400008F49C8638F4800687C
:102AE00020F002008D4908600846006840F00100AF
:102AF00008608B48217800EB011005608848217838
:102B000000EB0110C06840F001018548227800EB1D
:102B10000210C1608248217800EB0110806840F00B
:102B200001017F48227800EB0210816070BD10B572
:102B300004462CB1012C03D0022C01D0032C00D16F
:102B400003E030216DA0FDF787FD754800EB041010
:102B5000006810BD10B504462CB1012C03D0022C26
:102B600001D0032C00D103E0412164A0FDF774FDE6
:102B70006B4800EB0410406810BD70B504460D466C
:102B80002CB1012C03D0022C01D0032C00D103E086
:102B900053215AA0FDF760FD614800EB0410056069
:102BA00070BD10B504462CB1012C03D0022C01D00D
:102BB000032C00D103E0642150A0FDF74DFD5848DF
:102BC00000EB0410806840F00101554800EB041050
:102BD000816010BD10B504462CB1012C03D0022C2D
:102BE00001D0032C00D103E0752144A0FDF734FD92
:102BF0004B4800EB0410806820F00101484800EBCE
:102C00000410816010BD70B504460E46154606B925
:102C100003E08B2139A0FDF71FFD2CB1012C03D05F
:102C2000022C01D0032C00D103E08C2133A0FDF74E
:102C300013FD0DB1012D00D103E08D212FA0FDF773
:102C40000BFDB6B9012D0AD1354800EB04108068A0
:102C500040F00201324800EB0410816009E0304886
:102C600000EB0410806820F002012D4800EB0410F6
:102C7000816070BD70B504460D4605B903E0A3211F
:102C80001EA0FDF7E9FC2CB1012C03D0022C01D0D1
:102C9000032C00D103E0A42118A0FDF7DDFC55B9F9
:102CA0001F4800EB0410C06800F0010008B10120CB
:102CB00070BD0020FCE70020FAE770B504460D4621
:102CC00005B903E0C2210DA0FDF7C6FC2CB1012C13
:102CD00003D0022C01D0032C00D103E0C32107A0B4
:102CE000FDF7BAFC0E4800EB0410C06840F001018B
:102CF0000B4800EB0410C16070BD00002E2E5C5329
:102D000052435C46574C49425C5049545C7069746C
:102D10002E63000040020020008004400070034049
:102D2000007103400246F94850F8220050F8210093
:102D300000F0800008B1002070470120FCE770B56A
:102D4000134633B1012B1CD0022B25D0032B48D1C5
:102D50003CE0EF4C225602F01F050124AC40ED4D43
:102D6000560945F8264000BFE84A52F8202052F89C
:102D7000212022F04002E54C54F8204044F8212064
:102D800030E0E24A52F82020126A22F00402DF4CBE
:102D900054F82040226225E0DC4A52F8202052F804
:102DA000212042F04002D94C54F8204044F8212020
:102DB000D74C225602F01F050124AC405509AD0046
:102DC00005F1E025C5F8004100BF0BE0CF4A52F8FD
:102DD0002020126A42F00402CC4C54F820402262B7
:102DE00000E000BF00BF70BDF0B50446C74850F812
:102DF0002400406A40F00300C44951F8241048629E
:102E0000C24850F82400406A40F00300BF4951F81E
:102E100024104862BD4850F82400806840F0030048
:102E2000BA4951F824108860B84850F82400406A24
:102E300040F04000B54951F824104862B34850F8BA
:102E40002400406A40F08000B04951F824104862E4
:102E5000002211462046FFF772FF002700E07F1C8A
:102E6000AD488742FBD3A94850F82400406A00F0DF
:102E7000400008B10120F0BD0025A44850F824000E
:102E8000C06C0544A14850F82400806C05449F485C
:102E900050F82400406C05449C4850F82400006C15
:102EA00005449A4850F82400C06B0544974850F8F0
:102EB0002400806B05444FF4004040EA550500268D
:102EC000924850F82400C06E0644904850F8240000
:102ED000806E06448D4850F82400406E06448B48AE
:102EE00050F82400006E0644884850F82400C06D55
:102EF0000644864850F82400806D06444FF4004094
:102F000040EA5606814850F82400406A20F08000CC
:102F10007E4951F8241048627C4850F82400C5626C
:102F20007A4850F8240006630020A4E710B5044650
:102F30007A49206851F830000068784A216802EB2D
:102F4000C10149680843216852F8311008602068BF
:102F5000FFF74AFF6D49206851F82000806820F093
:102F600003006A4A216852F82110886011462068DF
:102F700051F820008068617901F00301084321685D
:102F800052F8211088601146206851F82000006A2C
:102F900020F00300216852F82110086211462068D1
:102FA00051F82000006AA17A01F00301084321686A
:102FB00052F8211008621146206851F820008068FC
:102FC00020F00C00216852F821108860114620681A
:102FD00051F820008068A1790C2202EA810108439F
:102FE0004A4A216852F821108860207901280BD1C3
:102FF0001146206851F82000006A40F04000216826
:1030000052F8211008620BE04049206851F8200076
:10301000006A00F040003D4A216852F82110086221
:10302000207A60B93949206851F82000406A40F0A0
:103030000800364A216852F8211048620BE03349F3
:10304000206851F82000406A20F008002F4A2168CB
:1030500052F821104862607A05287AD2DFE800F041
:103060000310263E60002949206851F82000406A7C
:1030700020F00300254A216852F82110486269E0D7
:103080002249206851F82000406A20F003001F4ABE
:10309000216852F8211048621146206851F820003A
:1030A000406A216852F82110486253E017492068AD
:1030B00051F82000406A20F00300144A216852F8B9
:1030C000211048621146206851F82000406A40F003
:1030D0000100216852F8211048623BE00B4920684A
:1030E00051F82000406A20F00300084A216852F895
:1030F000211048621146206851F82000406A40F0D3
:103100000200216852F82110486223E074B80000E0
:103110008CB8000080E100E0A08601007CB80000CF
:103120007249206851F82000406A20F003006F4A7D
:10313000216852F8211048621146206851F8200099
:10314000406A40F00300216852F82110486201E013
:10315000FFE700BF00BF10BD51B1644A52F8202004
:10316000126A42F04002614B53F820301A6209E0C3
:103170005E4A52F82020126A02F040025B4B53F87C
:1031800020301A62704749B9584A52F82020D26854
:1031900022F01002554B53F82030DA60012909D192
:1031A000524A52F82020D26842F010024F4B53F896
:1031B0002030DA60704773B584B00E4604AC2078D6
:1031C00000F00700019000208DF809008DF80A60DA
:1031D0008DF808008DF80B0001208DF80C00002000
:1031E0008DF80D008DF80E00002518E02388C3F33C
:1031F0008212C3F344232B44D9B22378C3F3C20011
:10320000FFF7C8FB2288C2F344222A44D1B22278B5
:10321000C2F3C2000022FFF7E2FB681CC5B22068BF
:10322000C0F38430A842E1DC01A8FFF77FFE2268EA
:10323000110E227802F00700FFF7A5FF207800F0BA
:10324000070006B070BD10B5284B53F8203053F876
:10325000223023F01F03254C54F8204044F822303C
:10326000224B53F8203053F8223001F01F0423433F
:103270001E4C54F8204044F8223010BD02461B4832
:1032800050F82200103050F82100704771B56C469C
:10329000207800F007052068C0F3C44600223146BC
:1032A0002846FFF7D0FF00BF104850F825000068FF
:1032B00000F080000028F7D000212846FFF7DEFF4D
:1032C00078BD11B10A4A42F82010704710B508487D
:1032D000006810B106490868804710BD10B5044861
:1032E000406810B102494868804710BD74B80000BA
:1032F0004C0000202DE9F041044600270026B0468E
:10330000254641F24161206888420BD0FB49206884
:10331000884207D0FA492068884203D0F9492068DA
:10332000884200D103E01921F7A0FDF795F94CF28E
:103330005031606888422FD04900606888422BD0A5
:10334000F7496068884227D0F6496068884223D0F0
:10335000F549606888421FD0F449606888421BD0F4
:10336000F3496068884217D0F2496068884213D0F8
:10337000F149606888420FD0F049606888420BD0FC
:10338000EF496068884207D0EE496068884203D000
:10339000ED496068884200D103E01A21DAA0FDF708
:1033A0005BF9287800F00F0010B1012810D107E078
:1033B000E648406B40F04000E4494863E44F08E0D1
:1033C000E248406B40F08000E0494863E14F00E094
:1033D00000BF00BF2878C0F3031005282CD2DFE817
:1033E00000F0030B131B2300D848806B40F40070DF
:1033F000D6498863D84E20E0D448806B40F4806082
:10340000D2498863D54E18E0D048806B40F4006004
:10341000CE498863D24E10E0CC48806B40F4805097
:10342000CA498863CF4E08E0C848806B40F400501A
:10343000C6498863CC4E00E000BF00BF2868C0F3D7
:10344000053056F8200020F4E0602968C1F305310A
:1034500046F821002868C0F3854056F8200020F483
:10346000E0602968C1F3854146F821002868C0F36F
:10347000053056F820002988C1F303214FF4E0629B
:1034800002EA012141F0200108432968C1F3053116
:1034900046F821002868C0F3854056F820002988A6
:1034A000C1F3032102EA012141F020010843296808
:1034B000C1F3854146F82100AC4880696168B0FBE2
:1034C000F1F0A038202101EB501887F8018080200E
:1034D000B870BDE8F08110B504469D48844202D022
:1034E0009C48844200D103E0592187A0FDF7B4F83D
:1034F000A07840F01000A070A07840F02000A070EC
:1035000010BD10B504469248844202D091488442CE
:1035100000D103E069217CA0FDF79EF8A07840F07F
:103520000400A07010BD10B504468948844202D042
:103530008848844200D103E0782173A0FDF78CF81D
:10354000A07820F02000A070A07820F01000A070DB
:1035500010BD70B504460D467D48844202D07D48BA
:10356000844200D103E0892167A0FDF775F8257139
:1035700070BD10B504467648844202D07548844236
:1035800000D103E0982160A0FDF766F8207910BD16
:1035900070B504460E4615466D48844202D06D480B
:1035A000844200D103E0AB2157A0FDF755F80DB1DF
:1035B000012D00D103E0AC2153A0FDF74DF815B962
:1035C00006F0FE0601E046F00106267170BD70B5FA
:1035D0000446002600255E48844202D05D488442AD
:1035E00000D103E0C02148A0FDF736F80BE0681CCD
:1035F00085B2B5F5FA6F01DD002070BDE07800F00E
:10360000010000B10126E07800F002000028EED0B1
:10361000E07840F00200E070012E01D10120ECE7DB
:103620000020EAE770B504460D460DB1012D00D12A
:1036300003E0DD2134A0FDF70FF825B9A07840F0B4
:103640001000A07003E0A07820F01000A07070BD02
:1036500010B504463E48844202D03E48844200D120
:1036600003E0EC2128A0FCF7F7FFA07840F0080069
:10367000A07010BD10B504463548844202D03548CC
:10368000844200D103E0FB211FA0FCF7E5FFA078F6
:1036900020F00800A07010BD70B504460E46154617
:1036A0002B48844202D02B48844200D104E04FF4DE
:1036B000887115A0FCF7D0FF3EB1032E05D0022E75
:1036C00003D0042E01D0012E00D104E040F21111EC
:1036D0000DA0FCF7C1FF0DB1012D00D104E04FF4A6
:1036E000897109A0FCF7B8FF36B1012E4CD0032E2A
:1036F00061D0042E72D16AE03AE0000010020400AA
:1037000010220C0021A22C002E2E5C5352435C464A
:10371000574C49425C4932435C6932632E63000076
:10372000F0490200400D030090D00300E093040034
:10373000801A060020A10700C027090060AE0A0019
:1037400000350C00A0BB0D0040420F00008004407B
:1037500000600640007006400090044000A0044055
:1037600000B0044000C0044000D0044040020020EB
:10377000012D04D1A07840F04000A07003E0A078B3
:1037800020F04000A0703BE0012D04D1A07840F073
:103790004000A07003E0A07820F04000A070012D50
:1037A00004D1A07840F00200A07003E0A07820F0DF
:1037B0000200A07024E0012D04D1A07840F0400068
:1037C000A07003E0A07820F04000A07018E0012D68
:1037D00005D1A07840F04000A07004E00FE0A07890
:1037E00020F04000A070012D04D1207A40F00100AB
:1037F000207203E0207A20F00100207200E000BF78
:1038000000BF70BD70B504460D4600266B4884426B
:1038100002D06B48844200D105E040F23511AFF28E
:103820001810FCF719FF3DB1032D05D0022D03D070
:10383000042D01D0012D00D105E04FF49B71AFF2B2
:103840003810FCF709FF052D2CD2DFE805F0030B3B
:103850001B132300E07800F0800008B1012600E08F
:10386000002620E0E07800F0400008B1012600E0EA
:10387000002618E0207A00F0080008B1012600E0D8
:10388000002610E0E07800F0100008B1012600E00A
:10389000002608E0207A00F0020008B1012600E0CE
:1038A000002600E000BF00BF304670BD70B5044682
:1038B0000E4615464148844202D04148844200D118
:1038C00005E040F25D11AFF2C010FCF7C5FE06B98D
:1038D00005E04FF4AF71AFF2D010FCF7BDFE0DB1B3
:1038E000012D00D105E040F25F11AFF2E410FCF7CA
:1038F000B3FE5EB9012D04D1A07840F00100A070A4
:1039000003E0A07820F00100A07000E000BF00BF3D
:1039100070BD70B504460D462848844202D0284840
:10392000844200D105E040F27711AFF22420FCF789
:1039300093FE3DB1032D05D0022D03D0042D01D0FF
:10394000012D00D105E04FF4BC71AFF24420FCF72B
:1039500083FEA07840F08000A070052D15D2DFE82E
:1039600005F003040A050F000FE00EE0207A40F096
:103970000800207209E0E07840F01000E07004E0F8
:10398000207A40F00200207200BF00BF70BD10B569
:1039900004460A48844202D00948844200D105E026
:1039A0004FF4CC71AFF2A020FCF756FEE07800F0A7
:1039B000200008B1012010BD0020FCE70060064097
:1039C000007006405548007840F070005349087078
:1039D0000846007840F08000087000BF4F4800782B
:1039E00000F080000028F9D04C48007800F0710009
:1039F00008B1042070470020FCE74948406840F4C3
:103A00000020474948600846806840F400208860EC
:103A10004CF220504349C8814DF62810C88100203F
:103A200008803E48007800F0200030B13B48007824
:103A300040F020003949087016E03848007800F05E
:103A4000100030B13548007840F01000334908705C
:103A50000AE03248007800F0400028B12F48007892
:103A600040F040002D4908702D48406820F01000BB
:103A70002B4948600846806820F010008860704735
:103A800010B50346002000BF02E01C5C1454401C2B
:103A90008842FAD310BD38B503460C46D8020090D0
:103AA00006201E49C87100251CE09DF802001B4934
:103AB00088719DF8010048719DF800000871D07868
:103AC000C87290788872507848721078087200989E
:103AD000001D0090121DFFF775FF08B1042038BDCE
:103AE000281D85B2A542E0DB0020F8E708B50246B4
:103AF000D002009009200949C8719DF80200887120
:103B00009DF8010048719DF800000871FFF75AFF09
:103B100008B9002008BD0420FCE7000000000240B6
:103B200000F0014000200540FA4800E0401C00F091
:103B30000F02002AFAD1F84A1060F84800E0401C51
:103B400000F00F02002AFAD1F54A10600022F24B71
:103B50001B685A80F04B1B681A801822EE4B1B68BA
:103B60009A60F04800E0401C00F00F02002AFAD1F1
:103B7000002121E08022EA4B1B6803EB41131A80ED
:103B80000022E74B1B6803EB41135A8002BAE44B57
:103B90001B6803EB41135A6000F5BE600022E04B46
:103BA0001B6803EB41131A614FF40042DC4B1B68A6
:103BB00003EB41139A60491C0829DBD3D84A1268E9
:103BC000B2F8E02042F02002D54B1B68A3F8E020B9
:103BD0000022D54B1A60704770B503464FF0FF3195
:103BE000002212E09C5C00250CE004F0010001F0D2
:103BF0000106704018B14908CC48414000E049082E
:103C000064106D1C082DF0DB521C062AEADB880EBE
:103C100070BD30B5044620780006617840EA014066
:103C2000A17840EA0120E1780843C1490860207981
:103C30000006617940EA0140BD49E439C1F8E80075
:103C40002046FFF7C9FF0546202D0CDBB84834306D
:103C50000068A5F1200101228A401043B449E439EB
:103C6000C1F8180109E0B248383000680121A940C4
:103C70000843AF49E439C1F81C0130BD30B50346F3
:103C80000C464FF40000AA4DE43D68604FF07860A8
:103C900000EAC35040F0C0404FF4F80505EA8445FF
:103CA000284340F40030A24DE43D2864002107E0A1
:103CB0009F48E438406800F4000000B103E0491C6C
:103CC0009C488142F4D300BF9A48814201D101202F
:103CD00030BD4FF40000964DE43D68602846006C0E
:103CE00010800020F4E730B503460C464FF4000086
:103CF0008F4DE43D68604FF0786000EAC35040F0BB
:103D0000A0404FF4F80505EA8445284340F400300C
:103D100095B22843864DE43D2864002107E084489D
:103D2000E438406800F4000000B103E0491C814819
:103D30008142F4D300BF7F48814201D1012030BDD0
:103D40004FF400007A4DE43D68600020F7E710B5BD
:103D5000FCF710FF784880694FF47A71B0FBF1F0FE
:103D6000B0FBF1F0C4B26000052190FBF1F0401C03
:103D70007E2101EA40006E49E439486410BD38B53F
:103D8000054600246D48C06A40F001006B49C862D6
:103D900000206B490860FFF7C7FE6848806B40F45D
:103DA0000070664988630846806B40F480608863D1
:103DB0000846806B40F4006088630846806B40F4DE
:103DC000805088630846806B40F4005088635D48EB
:103DD000407820F004005B49487001205449E439E0
:103DE00048620020009004E0BDF80000401C80B252
:103DF0000090BDF800006428F6DBFFF7A8FF4C2018
:103E000000F0FFF94D2000F0FCF94E2000F0F9F928
:103E10004FF480604C49086048604C49086348632F
:103E20008863C8630864486400BF0A20FDF775FA18
:103E3000601C84B2B4F5FA7F01DD012038BD4FF675
:103E4000FF7000906A4602210120FFF717FFBDF8BE
:103E500000004FF6FF718842E7D0BDF800103CA08B
:103E600000F0A8FD6A4603210120FFF707FFBDF817
:103E700000103CA000F09EFD6A4605210120FFF7DE
:103E8000FDFEBDF800103CA000F094FD6A4605213F
:103E90000120FFF7F3FEBDF800103CA000F08AFD02
:103EA0006A4610210120FFF7E9FEBDF800103CA092
:103EB00000F080FD6A4611210120FFF7DFFEBDF80A
:103EC00000103CA000F076FD6A4612210120FFF7A9
:103ED000D5FEBDF800103BA000F06CFD4FF49052F1
:103EE00000210120FFF7FFFE6A4600210120FFF7B5
:103EF000C5FEBDF8001037A000F05CFD00BF0A2031
:103F0000FDF70BFA601C84B2B4F5FA7F6ADD01207C
:103F100094E767E0A402002054000020D4020020AF
:103F200058000020E40300205C0000202083B8ED4E
:103F3000E4000C40FFFF010040020020008004402C
:103F400000D000400040064000A004400090044023
:103F50005048595F504859494452313D30782558AE
:103F60000D0A00005048595F504859494452323DAB
:103F7000307825580D0A00005048595F414E4C508A
:103F800041523D307825580D0A0000005048595FD5
:103F9000414E4C5041524E503D307825580D0A004C
:103FA0005048595F5048595354533D307825580D67
:103FB0000A0000005048595F4D4943523D30782572
:103FC000580D0A005048595F4D4953523D307825ED
:103FD000580D0A005048595F424D43523D307825F4
:103FE000580D0A006A4601210846FFF747FEBDF852
:103FF000000000F02000002881D0002000906A46D8
:104000001F210120FFF73AFE002083490860834901
:10401000C1F81801804908310860091F0860286844
:10402000FFF7F7FD7E487D498431086000207B4919
:10403000C1F8C400BDF8000000F0100088B1774856
:104040008430006820F00200C1F884000846D0F8EF
:10405000C40040F00400C1F8C40072A000F0AAFC43
:1040600011E06E488430006840F002006B49C1F8EE
:1040700084000846D0F8C40020F00400C1F8C40051
:104080006BA000F097FCBDF8000000F0040038B110
:1040900062488430006840F400706049C1F88400D0
:1040A00010205E4948624FF4F8505B496C3108605B
:1040B000624800685949C1F8800161480068564962
:1040C000683108604FF0FF30544948605D488860AF
:1040D0000846406A40F0020048624FF08070086174
:1040E0000020ABE608B5002000906A460121084692
:1040F000FFF7C4FDBDF8000000F0040008B1012086
:1041000008BD0020FCE770B504460D4600BF4C48D2
:104110000068007800F080000028F8D120BA4849F3
:10412000096848602846FCF77DF9454909684880D8
:104130000020434909680861602041490968886096
:10414000AC203F49096808804FF0807033494861CE
:1041500070BD70B50446002500BF384800683A4974
:10416000096800EB4110007800F08000A0BB3349E3
:104170000968354A126801EB42114888FCF752F988
:1041800085B22E480068304A126800EB4210406841
:1041900001BA2A46204606F0BBFC284800682A4996
:1041A000096800EB4110008840F08000234909684D
:1041B000254A126801EB4211088023480068401C20
:1041C0002149086008460068082801D300200860DB
:1041D0004FF0807011490861284670BD0F48406853
:1041E00040F000600D49486070470C48406840F05E
:1041F00000700A494860704710B514A000F0DAFB5F
:1042000010BD00F01F02012191404209920002F10D
:10421000E022C2F8001170471C010C4000000C4065
:104220000441F005C8ABCBABB9A40D0A00000000F7
:10423000B0EBCBABB9A40D0A000000005800002081
:10424000540000200000786B5C000020D2D4CCAB7E
:10425000CDF8B4EDCEF30D0A000000002DE9F047D3
:104260000446002500270026261D44F21041606800
:10427000884234D0FA496068884230D0F949606891
:1042800088422CD0F8496068884228D040F2193121
:104290006068884223D04CF69901606888421ED03D
:1042A00048F2DA616068884219D0F0496068884253
:1042B00015D0EC4943316068884210D0EC49606801
:1042C00088420CD0EB496068884208D0E4498431C8
:1042D0006068884203D0E8496068884200D103E002
:1042E0007021E6A0FCF7B8F9307800F00700062846
:1042F00034D2DFE800F0030B131B232BE648406B9E
:1043000040F48060E4494863E44D29E0E248406BB2
:1043100040F40060E0494863E14D21E0DE48406B35
:1043200040F48050DC494863DE4D19E0DA48406BC8
:1043300040F40050D8494863DB4D11E0D648806A0C
:1043400040F48060D4498862D84D09E0D248806A40
:1043500040F40060D0498862D54D01E0002500BFDF
:1043600000BF3088C0F3821005282CD2DFE800F0AF
:10437000030B131B2300C848806B40F40070C64930
:104380008863CC4F20E0C448806B40F48060C24911
:104390008863C94F18E0C048806B40F40060BE4994
:1043A0008863C64F10E0BC48806B40F48050BA4927
:1043B0008863C34F08E0B848806B40F40050B649AA
:1043C0008863C04F00E000BF00BF3068C0F3843096
:1043D00057F8200020F4E0603168C1F3843147F8D9
:1043E00021003068C0F3843057F820003178C1F3E1
:1043F000C2014FF4E06202EA012108433168C1F3CF
:10440000843147F821003088C0F3442057F8200059
:1044100020F4E0603188C1F3442147F8210030885E
:10442000C0F3442057F820003178C1F3C20102EAFA
:10443000012108433188C1F3442147F82100FCF7EA
:1044400099FBA148D0F818909448854202D094482E
:10445000854202D19C48D0F8149020680001B9FB35
:10446000F0F01FFA80F84FEA49002168B0FBF1F044
:10447000A0EB481000F0FF0AC8F30420287085F86C
:104480000180A87A0AF01F010843A872E87820F09A
:104490000C00E870A87820F01000A870A87820F030
:1044A0000200A870687920F020006871E87840F078
:1044B0000C00E87080208549A1F88400BDE8F087F1
:1044C00033B583B00C4603AD01940398029028786D
:1044D00000F0070006281CD2DFE800F003070B0FEE
:1044E00013176E487A49086017E06D4878490860EC
:1044F00013E06C48764908600FE06B487449086027
:104500000BE06A487249086007E069487049086032
:1045100003E000206E49086000BF00BF01A8FFF75C
:104520009DFE05B030BD2DE9F04100240025604816
:10453000674908605848806A40F4006056498862BC
:104540000846806B40F400508863594C5D4D286AE2
:1045500020F4E0602862286A40F440702862686AAB
:1045600020F4E0606862686A40F440706862FCF7BA
:1045700001FB5548D0F818804848844202D048488A
:10458000844202D15048D0F814804FF4E110B8FBB7
:10459000F0F086B24FEA48004FF4E131B0FBF1F0A1
:1045A000A0EB4610C7B22078C6F304210843207060
:1045B0006670A07A07F01F010843A072E07820F02F
:1045C0000C00E070A07820F01000A070A07820F01F
:1045D0000200A070607920F020006071E07840F067
:1045E0000C00E07080203949A1F88400BDE8F0811A
:1045F00070B504460E461546284884420ED0284819
:1046000084420BD02748844208D02748844205D0F2
:104610002648844202D02648844200D103E0D721B4
:1046200016A0FCF719F82EB1012E03D0022E01D0EE
:10463000032E00D103E0D82110A0FCF70DF80DB136
:10464000012D00D103E0D9210CA0FCF705F836B10B
:10465000012E4BD0022E55D0032E6BD15EE039E0F7
:10466000189E030058220400D88E01005B960200B9
:104670001B0B01001C3306001D1302002E2E5C5381
:1046800052435C46574C49425C554152545C7561FB
:1046900072742E63000000000080044000A00640F9
:1046A00000B0064000C0064000D0064000A00E400A
:1046B00000B00E400090044000A0044000B0044050
:1046C00000C0044000D004404002002074330020A9
:1046D00060000020012D04D1E07840F08000E070FF
:1046E00003E0E07820F08000E07024E0012D04D1A8
:1046F000E07840F04000E07003E0E07820F0400017
:10470000E07018E0012D04D1E07840F02000E07066
:1047100003E0E07820F02000E0700CE0012D04D1EF
:10472000E07840F01000E07003E0E07820F0100046
:10473000E07000E000BF00BF70BD70B504460E46DB
:10474000FE4884420ED0FE4884420BD0FD4884428D
:1047500008D0FD48844205D0FC48844202D0FC4881
:10476000844200D104E0FC21AFF2F000FBF774FFBB
:104770002EB1012E03D0022E01D0032E00D104E071
:10478000FD21AFF20810FBF767FF36B1012E0CD008
:10479000022E12D0032E20D117E0207900F08000E5
:1047A00008B1012500E0002518E0207900F0400064
:1047B00008B1012500E0002510E0207900F020007C
:1047C00008B1012500E0002508E0207900F0100084
:1047D00008B1012500E0002500E000BF00BF284629
:1047E00070BD00BF027902F08002002AFAD0C171C8
:1047F000704770B504460E461546D04884420ED028
:10480000CF4884420BD0CF48844208D0CE4884425F
:1048100005D0CE48844202D0CD48844200D105E084
:104820004FF49B71AFF2AC10FBF716FF2A463146EE
:10483000C84806F06DF9C74880F880500020C54987
:1048400081F8810081F88200E07A20F08000E07237
:10485000E07840F08000E07070BD70B504460D4611
:1048600016462DB1012D03D0022D01D0032D00D10C
:1048700005E04FF4AB71AFF2FC10FBF7EDFEAF4873
:1048800084420ED0AE4884420BD0AE48844208D059
:10489000AD48844205D0AD48844202D0AC48844241
:1048A00000D105E040F25711AFF23020FBF7D4FE03
:1048B0000EB1012E00D105E04FF4AC71AFF24420EF
:1048C000FBF7CAFE15B1012D18D10BE0012E04D162
:1048D000E07A40F08000E07203E0E07A20F08000AF
:1048E000E0720CE0012E04D1E07A40F02000E0728A
:1048F00003E0E07A20F02000E07200E000BF00BF9B
:1049000070BD017901F0800119B3C17801F0800117
:10491000F9B1904991F88210D9B98E4991F8812066
:1049200091F88110491C8B4B83F881101946895CE2
:10493000C171194691F881101A4692F8802091426F
:1049400007DB01211A4682F88210C17821F080012C
:10495000C17070470246107900F0200018B1D0797C
:104960000870012070470020FCE700B5034605E011
:10497000197879480068FFF734FF5B1C1878002825
:10498000F6D100BDF0B504460D46B4FBF5F028B1F4
:10499000B4FBF5F629463046FFF7F4FFB4FBF5F01B
:1049A00005FB10476D480068C15D6B480068FFF764
:1049B00018FFF0BD0FB470B505AD00BF08E014B925
:1049C00070BC5DF814FB214663480068FFF709FFDF
:1049D000049810F8011B0C4604902529EFD1049887
:1049E00010F8014B0490642C01D06C2C03D10A21E7
:1049F0002868FFF7C7FF6F2C01D0782C08D16F2CE7
:104A000001D1082200E0102211462868FFF7BAFF02
:104A1000732C02D12868FFF7A8FF2D1DCEE770B5D3
:104A2000FCF71FFC044621464DA0FFF7C3FF524888
:104A300040780A282AD2DFE800F02905090D11156F
:104A4000191D21254DA0FFF7B5FF1FE050A0FFF76E
:104A5000B1FF1BE055A0FFF7ADFF17E057A0FFF730
:104A6000A9FF13E05AA0FFF7A5FF0FE05EA0FFF734
:104A7000A1FF0BE062A0FFF79DFF07E066A0FFF734
:104A800099FF03E06BA0FFF795FF00BF00BF3A4816
:104A9000007828281AD006DC0A280BD014280DD05C
:104AA0001E2823D10EE0322814D0352816D03C28F9
:104AB0001CD117E063A0FFF77DFF1BE065A0FFF7A7
:104AC00079FF17E067A0FFF775FF13E069A0FFF714
:104AD00071FF0FE06BA0FFF76DFF0BE06DA0FFF71C
:104AE00069FF07E06FA0FFF765FF03E071A0FFF724
:104AF00061FF00BF00BF2048818878A0FFF75AFF00
:104B00001D4880780A2190FBF1F201FB12041A483B
:104B1000807890FBF1F52246294673A0FFF74AFF03
:104B200015488068810A76A0FFF744FF1248C068E4
:104B3000810A78A0FFF73EFF0F48F7E000A006408B
:104B400000B0064000C0064000D0064000A00E4065
:104B500000B00E407433002060000020640000208C
:104B600043485F4B36302046575F56657273696F16
:104B70006E3A25640D0A000040020020536F6674EF
:104B8000776172652052657365740D0A000000003C
:104B9000436F7265204C6F636B7570204576656E50
:104BA000742052657365740D0A0000004A54414731
:104BB0002052657365740D0A00000000506F776520
:104BC000722D6F6E2052657365740D0A000000002F
:104BD00045787465726E616C2050696E2052657301
:104BE00065740D0A000000005761746368646F67A4
:104BF00028434F50292052657365740D0A00000048
:104C00004C6F7373206F6620436C6F636B2052652B
:104C10007365740D0A0000004C6F772D766F6C740D
:104C200061676520446574656374205265736574BB
:104C30000D0A00004C4C57552052657365740D0ADF
:104C40000000000046616D696C793A4B31300D0A05
:104C50000000000046616D696C793A4B32300D0AF4
:104C60000000000046616D696C793A4B33300D0AE3
:104C70000000000046616D696C793A4B34300D0AD2
:104C80000000000046616D696C793A4B35300D0AC1
:104C90000000000046616D696C793A4B35330D0AAE
:104CA0000000000046616D696C793A4B36300D0AA0
:104CB000000000000A556E7265636F676E697A6561
:104CC00064204B696E657469732066616D696C79E7
:104CD000206465766963652E0A00000050696E43A2
:104CE0006E743A25640D0A0053696C69636F6E52E5
:104CF000657649443A25642E25640D0A00000000BB
:104D000050466C6173682053697A653A2025644B7C
:104D1000420D0A00466C65784E564D2053697A65FF
:104D20003A2025644B420D0A000000000069810A08
:104D30000BA0FFF73FFE0F4841690FA0FFF73AFEB7
:104D40000C48816911A0FFF735FE0A48C16914A01B
:104D5000FFF730FE0748016A17A0FFF72BFE70BD72
:104D600052414D2053697A65203A25644B420D0A21
:104D70000000000040020020436F7265436C6F63C7
:104D80006B3A202564487A0D0A000000427573438F
:104D90006C6F636B3A202564487A0D0A00000000AE
:104DA000466C6578427573436C6F636B3A2025647B
:104DB000487A0D0A00000000466C617368436C6F0E
:104DC000636B3A202564487A0D0A00003EB5C74857
:104DD000029000208DF802008DF8030008208DF865
:104DE00004000620ADF800006846FDF78BFABF48C6
:104DF000029000208DF802008DF8030008208DF845
:104E000004000A20ADF800006846FDF77BFAB748B9
:104E1000029000208DF802008DF8030008208DF824
:104E200004000F20ADF800006846FDF76BFAAF48AC
:104E3000029000208DF802008DF8030008208DF804
:104E400004001120ADF800006846FDF75BFA01216F
:104E5000A748FEF7B0F90121A648FEF7ACF90024F7
:104E600006E00020A4490855A4490855601CC4B2B6
:104E7000802CF6DB3EBD2DE9F04180464046FEF732
:104E800005FAC0F30F144046FEF700FAC0F30F1501
:104E90004046FEF7FBF9C0F30F16AC4202DD274691
:104EA0002C463D46AE4201DD2F4604E0A64201DD20
:104EB000374600E027463846BDE8F0812DE9F0414D
:104EC00007460C460025002605E03846FFF7D3FFCD
:104ED0000544701CC6B2A642F7DBB5FBF4F5A8B2D8
:104EE000BDE8F08108B50020009006E000BF00BFDB
:104EF0009DF80000401CC0B200909DF80000012801
:104F0000F4DB08BD00B500207D4A90619062FFF798
:104F1000E9FF01207A4A9061FFF7E4FF0120784A17
:104F20009062FFF7DFFF0020754A9061FFF7DAFF1C
:104F30000020734A906201210BE0FFF7D3FF0120AC
:104F40006F4A9062FFF7CEFF00206D4A9062481CC6
:104F5000C1B28029F1DBFFF7C5FF0120684A9062EA
:104F6000FFF7C0FF0020664A906200BD70B504469E
:104F70000E46012E43D1012061498861FFF7B2FF3F
:104F800001205F498862FFF7ADFF00205C4988611E
:104F9000FFF7A8FF002503E0FFF7A4FF681CC5B2D8
:104FA000962DF9DB5248FEF771F9C0F30710207017
:104FB000641C002052498862012512E0FFF792FF2D
:104FC00001204F498862FFF78DFF4948FEF75EF9DF
:104FD000C0F307102070641C002049498862681CD7
:104FE000C5B2802DEADBFFF77DFF012044498862CE
:104FF000FFF778FF002042498862FFF773FF70BD1A
:105000002DE9F04104460D460026002701203C49C9
:10501000886200208861FFF765FF012038498861B8
:1050200000208862FFF75EFF01203549886200207A
:105030008861FFF757FF00BF13E000203049886206
:10504000FFF750FF2846FEF721F9C0F30710E0559F
:10505000781CC7B201202A498862FFF743FF701C01
:10506000C6B2802EE9DBBDE8F0812DE9F0410446AF
:105070000D46002600270120214948640020C8630E
:10508000FFF730FF01201E49C86300204864FFF786
:1050900029FF01201A4948640020C863FFF722FF56
:1050A00000BF13E0002016494864FFF71BFF2846A5
:1050B000FEF7ECF8C0F30710E055781CC7B20120EA
:1050C0000F494864FFF70EFF701CC6B2802EE9DB63
:1050D000BDE8F08110B506490748FFF791FF10BD04
:1050E00010B504490548FFF7C0FF10BD80F00F4020
:1050F0001040700008446000FA330020FA340020A9
:105100000010FE4300B58DB0F6480C9000208DF8DD
:105110002A008DF82B0008208DF82C001120ADF806
:1051200028000AA8FDF7EEF8EE48099000208DF857
:105130001E008DF81F0008208DF820001220ADF809
:105140001C0007A8FDF7DEF8E648069000208DF861
:1051500012008DF8130008208DF814001320ADF80C
:10516000100004A8FDF7CEF8DE48039000208DF86B
:1051700006008DF8070008208DF808001420ADF80F
:10518000040001A8FDF7BEF80DB000BD0821012202
:10519000D54B1A6000BF0022D34B0C3B1A6000BFF6
:1051A00016E000F0800222B10122CF4B083B1A60CA
:1051B00003E00022CC4B083B1A600122CA4B0C3B97
:1051C0001A6000BF0022C84B0C3B1A604206100E4A
:1051D0000A00A1F10103D9B2E3D1704708210022EE
:1051E000C14B1A60C04B0C3B1A6016E000F0800205
:1051F00022B10122BC4B083B1A6003E00022BA4BEB
:10520000083B1A600122B84B0C3B1A6000BF002219
:10521000B54B0C3B1A604206100E0A00A1F10103C7
:10522000D9B2E3D1704730B504460D4605F1B0015F
:10523000C8B2FFF7D3FF102141EA1410FFF7CEFFE9
:1052400004F00F0141F00100FFF7C8FF30BD30B599
:10525000002415E004F1B001C8B2FFF7BFFF012040
:10526000FFF7BCFF1020FFF7B9FF002504E0002086
:10527000FFF78CFF681CC5B2802DF8DB601CC4B240
:10528000082CE7DB30BD07E043F2264100BF0A00EF
:10529000A1F10101FBD1401E0028F5D1704710B5E6
:1052A000FFF730FF002090490C3908608E49091F34
:1052B00008603220FFF7E7FF01208B49091F0860D3
:1052C000AE20FFF78BFFD520FFF788FF8020FFF788
:1052D00085FFA820FFF782FF3F20FFF77FFFD32045
:1052E000FFF77CFF0020FFF779FF4020FFF776FFF4
:1052F0008D20FFF773FF1420FFF770FF2020FFF7CA
:105300006DFF0220FFF76AFFA120FFF767FFC820AB
:10531000FFF764FFDA20FFF761FF1220FFF75EFF5F
:105320008120FFF75BFFCF20FFF758FFD920FFF761
:1053300055FFF120FFF752FFDB20FFF74FFF402022
:10534000FFF74CFFA420FFF749FFA620FFF746FF19
:10535000AF20FFF743FFFFF77AFF00210846FFF772
:1053600062FF10BD2DE9FC478046894614460025A2
:105370000026A24604E00A20BAFBF0FA701CC6B26E
:10538000BAF1000FF7D124B9701CC6B230208DF8E5
:10539000000000200DF806000EE00A20B4FBF0F13A
:1053A00000FB11401030711B491E0DF801000A204E
:1053B000B4FBF0F4681CC5B2002CEED1494640465F
:1053C000FFF731FF00271EE0B8F17E0F05DD4FF03B
:1053D000000809F1010000F0FF0900250BE01DF8AD
:1053E000071001EB4101414A02EB4101485DFFF723
:1053F000CDFE681CC5B2062DF1DB08F1060000F0F9
:10540000FF08781CC7B2B742DEDBBDE8FC87F0B509
:1054100006460F461446412C05DB5A2C03DCA4F14A
:105420003700C4B222E0612C05DB7A2C03DCA4F146
:105430003500C4B21AE0202C01D1242416E03A2C05
:1054400001D1252412E02D2C01D126240EE02F2C91
:1054500001D127240AE02E2C01D1282406E02C2C8F
:1054600001D1292402E07E2C00D12A24782E02DDED
:105470000026781CC7B2F106080E3946FFF7D3FEA6
:10548000002507E005EB0411194A505CFFF77EFE8A
:10549000681CC5B2082DF5DB7A1CD1B2F206100EDD
:1054A000FFF7C1FE002508E005EB04110831104AA2
:1054B000505CFFF76BFE681CC5B2082DF4DBF0BD35
:1054C000F0B506460F461546002407E02A5D31195F
:1054D000C8B23946FFF79BFF601CC4B2285D0028A4
:1054E000F4D1F0BD40F00F405008FE4392BE0000E2
:1054F00032BA0000F0B505460E4614466420B4FBEF
:10550000F0F0C7B23A4631462846FFF780FF6420E4
:10551000B4FBF0F100FB11400A21B0FBF1F7691C6C
:10552000C8B23A463146FFF772FF0A20B4FBF0F1E9
:1055300000FB1147A91CC8B23A463146FFF767FF86
:10554000F0BDF0B505460E4614464FF47A70B4FB34
:10555000F0F0C7B23A4631462846FFF758FF4FF4FD
:105560007A70B4FBF0F100FB11406421B0FBF1F064
:10557000C7B2691CC8B23A463146FFF748FF6420FB
:10558000B4FBF0F100FB11400A21B0FBF1F7A91CBC
:10559000C8B23A463146FFF73AFF0A20B4FBF0F1B1
:1055A00000FB1147E91CC8B23A463146FFF72FFF0E
:1055B000F0BDF0B505460E46144642F21070B4FB3D
:1055C000F0F0C7B23A4631462846FFF720FF42F2D4
:1055D0001070B4FBF0F100FB11404FF47A71B0FB96
:1055E000F1F0C7B2691CC8B23A463146FFF70FFF67
:1055F0004FF47A70B4FBF0F100FB11406421B0FB72
:10560000F1F0C7B2A91CC8B23A463146FFF7FFFE17
:105610006420B4FBF0F100FB11400A21B0FBF1F76C
:10562000E91CC8B23A463146FFF7F1FE0A20B4FB46
:10563000F0F100FB1147291DC8B23A463146FFF789
:10564000E6FEF0BD70B505460C4621462846FFF73C
:10565000EAFD2046E11704EB5171C910A4EBC10229
:1056600001219140CEB2B02101EBE401C8B2FFF7B5
:10567000B5FD102141EA1510FFF7B0FD05F00F0050
:10568000FFF7ACFD3046FFF781FD70BD2DE9F04717
:1056900007460C4690461D46DDF820A0E11038462E
:1056A000FFF7C1FD3E4613E0A146E11704EB51713F
:1056B000C910A4EBC10201219140C8B2FFF766FDF9
:1056C000BAF1010F02D13220FFF7DDFD701CC6B226
:1056D0004645E9DDE9103846FFF7A5FD3E4613E0F3
:1056E000A946E91705EB5171C910A5EBC1020121CB
:1056F0009140C8B2FFF74AFDBAF1010F02D105206F
:10570000FFF7C1FD701CC6B24645E9DDBDE8F08774
:105710002DE9F0430446884615464FF0000900265F
:10572000002720E0E85D203800F0FF097E2C04DD32
:10573000002408F1010000F0FF0841462046FFF771
:1057400072FD002609E009EB49017B4A02EB4101A9
:10575000885DFFF71BFD701CC6B2062EF3DBA01D93
:10576000C4B2781CC7B2E85D0028DBD1BDE8F08385
:105770002DE9F04306460F46904600250024A14639
:1057800031E018F809002038C5B2782E02DD002675
:10579000781CC7B239463046FFF745FD002407E0C4
:1057A00004EB0511654A505CFFF7F0FC601CC4B2C5
:1057B000082CF5DB781CC1B23046FFF734FD00241D
:1057C00008E004EB051108315C4A505CFFF7DEFC91
:1057D000601CC4B2082CF4DB06F10800C6B209F163
:1057E000010000F0FF0918F809000028C9D1BDE840
:1057F000F0832DE9F04F06460F4690461C46DDF833
:1058000024A04FF0000BE11704EB5171C910A4EB79
:10581000C10131B92046E11704EB5171C1F3C7054D
:1058200006E02046E11704EB5171C910491CCDB2C6
:105830003D4615E029463046FFF7F5FCB1460BE042
:1058400059464A1C1FFA82FB1AF80100FFF79EFC1A
:1058500009F1010000F0FF09C145F1DB681CC5B288
:10586000A542E7DDBDE8F08F2DE9FC4F82460C46EE
:105870009146E01001902046E11704EB5171C910E8
:10588000A4EBC10189B20091002626E0F1B200200C
:10589000FFF7C9FC4FF6FF7000EAC60B002718E0BF
:1058A0000025A8460DE06D100BEB080000FB09A0D9
:1058B000C05D012801D145F0800508F101001FFA03
:1058C00080F8B8F1080FEEDB2846FFF75FFC781C84
:1058D00087B24F45E4DB701C86B201988642D5DB67
:1058E000F1B20020FFF79FFC4FF6FF7000EAC60BF5
:1058F00000271CE00025A8460DE06D100BEB08000A
:1059000000FB09A0C05D012801D145F0800508F128
:1059100001001FFA80F800988045EEDB0098C0F186
:10592000080005412846FFF731FC781C87B24F4537
:10593000E0DBBDE8FC8F000092BE0000BAC00000B2
:1059400070B505460E4614462846FDF7C4FD0022F4
:10595000D2212846FDF71CFE2846FDF738FE3146C9
:105960002846FDF7F6FD2846FDF731FE214628467C
:10597000FDF7EFFD2846FDF72AFE2846FDF7D3FD8B
:1059800000BF2846FEF703F80128FAD070BD70B5B5
:1059900004460D462046FDF79EFD0022D2212046FA
:1059A000FDF7F6FD2046FDF712FE29462046FDF7DD
:1059B000D0FD2046FDF70BFE2046FDF7A2FD01229B
:1059C000D3212046FDF7E4FD2046FDF700FE01212E
:1059D0002046FDF727FE2046FDF73AFE26792046B1
:1059E000FDF7F5FD2046FDF79EFD2679304670BD9A
:1059F0001CB522480090224801906846FDF77AFCC9
:105A0000FF2220211F48FFF79BFF082222211D486B
:105A1000FFF796FFD02223211A48FFF791FF1CBD04
:105A200070B5A8211748FFF7B2FF0546A921154810
:105A3000FFF7ADFF044605EB0426304670BD70B598
:105A4000AA211048FFF7A3FF0646AB210D48FFF738
:105A50009EFF054606EB0524204670BD70B5AC21BF
:105A60000848FFF794FF0646AD210648FFF78FFF71
:105A7000054606EB0524204670BD00001002040018
:105A8000801A0600006006402DE9FE4F82460F4650
:105A90009046D3460AF10100C0B202903846F91789
:105AA00007EB91718910C1F13F01CDB240464FEA39
:105AB000E87108EB91718910C1F13F01CEB228461F
:105AC000E91705EB5171C91001913046F11706EB4A
:105AD0005171C91000912846E91705EB5171C910A1
:105AE000A5EBC10101F0FF0958460199FFF79BFBA7
:105AF000B9F1080F15D2DFE809F00406080A0C0E08
:105B0000101201240DE002240BE0042409E0082413
:105B100007E0102405E0202403E0402401E0802475
:105B200000BF00BF2046FFF731FBDDE900018842DE
:105B30000CD000990298FFF776FB3046F11706EB80
:105B40005171C910A6EBC10101F0FF09B9F1080FAD
:105B500015D2DFE809F00406080A0C0E1012012421
:105B60000DE002240BE0042409E0082407E01024DF
:105B700005E0202403E0402401E0802400BF00BFB2
:105B80002046FFF703FBBDE8FE8F70B50546FFF723
:105B90005EFB002407E028194278295D2046FFF7C4
:105BA00073FF601CC4B27F2CF5DB70BD70B500259F
:105BB00003F06CFC0446FB480078012839D1052C21
:105BC0000CD1F9480078401EF74908700846007863
:105BD000012801DC01200870FFF739FB032C0CD1F0
:105BE000F1480078401CF049087008460078022807
:105BF00001DB02200870FFF72AFB012C18D10020DE
:105C0000E8490870E8480078012805D1E74908709C
:105C10000020E749087009E0E3480078022805D130
:105C20000120E34908700020E0490870FFF70FFBEE
:105C3000FCE3DE48007801287AD1052C28D1DD4824
:105C40000078401E40B2DB490870084690F9000019
:105C5000012801DA20200870D64890F9006006F08B
:105C600007064EB9014691F90000C11700EB5171CA
:105C7000C910D14A117009E0CE4991F90000C1174D
:105C800000EB5171C910491CCB4A1170FFF7DFFAC4
:105C9000032C28D1C7480078401C40B2C549087081
:105CA000084690F90000202801DD01200870C14855
:105CB00090F9006006F007064EB9014691F9000020
:105CC000C11700EB5171C910BB4A117009E0B94905
:105CD00091F90000C11700EB5171C910491CB64A77
:105CE0001170FFF7B4FAB4480078012879D1B148AF
:105CF0000578092D76D2DFE805F0DF051C32485E15
:105D0000768CA200022C04D1AC480088401CAB4920
:105D10000880042C04D1A9480088401EA7490880A7
